{
  "_format": "hh3-artifact-1",
  "contractName": "Voting",
  "sourceName": "contracts/Voting.sol",
  "abi": [
    {
      "inputs": [],
      "stateMutability": "nonpayable",
      "type": "constructor"
    },
    {
      "inputs": [
        {
          "internalType": "string",
          "name": "_name",
          "type": "string"
        }
      ],
      "name": "addCandidate",
      "outputs": [],
      "stateMutability": "nonpayable",
      "type": "function"
    },
    {
      "inputs": [],
      "name": "admin",
      "outputs": [
        {
          "internalType": "address",
          "name": "",
          "type": "address"
        }
      ],
      "stateMutability": "view",
      "type": "function"
    },
    {
      "inputs": [
        {
          "internalType": "uint256",
          "name": "",
          "type": "uint256"
        }
      ],
      "name": "candidates",
      "outputs": [
        {
          "internalType": "string",
          "name": "name",
          "type": "string"
        },
        {
          "internalType": "uint256",
          "name": "voteCount",
          "type": "uint256"
        }
      ],
      "stateMutability": "view",
      "type": "function"
    },
    {
      "inputs": [],
      "name": "electionEnded",
      "outputs": [
        {
          "internalType": "bool",
          "name": "",
          "type": "bool"
        }
      ],
      "stateMutability": "view",
      "type": "function"
    },
    {
      "inputs": [],
      "name": "electionId",
      "outputs": [
        {
          "internalType": "uint256",
          "name": "",
          "type": "uint256"
        }
      ],
      "stateMutability": "view",
      "type": "function"
    },
    {
      "inputs": [],
      "name": "electionStarted",
      "outputs": [
        {
          "internalType": "bool",
          "name": "",
          "type": "bool"
        }
      ],
      "stateMutability": "view",
      "type": "function"
    },
    {
      "inputs": [],
      "name": "endElection",
      "outputs": [],
      "stateMutability": "nonpayable",
      "type": "function"
    },
    {
      "inputs": [],
      "name": "getCandidates",
      "outputs": [
        {
          "components": [
            {
              "internalType": "string",
              "name": "name",
              "type": "string"
            },
            {
              "internalType": "uint256",
              "name": "voteCount",
              "type": "uint256"
            }
          ],
          "internalType": "struct Voting.Candidate[]",
          "name": "",
          "type": "tuple[]"
        }
      ],
      "stateMutability": "view",
      "type": "function"
    },
    {
      "inputs": [],
      "name": "getWinner",
      "outputs": [
        {
          "internalType": "string",
          "name": "winnerName",
          "type": "string"
        },
        {
          "internalType": "uint256",
          "name": "winnerVoteCount",
          "type": "uint256"
        }
      ],
      "stateMutability": "view",
      "type": "function"
    },
    {
      "inputs": [],
      "name": "restartElection",
      "outputs": [],
      "stateMutability": "nonpayable",
      "type": "function"
    },
    {
      "inputs": [],
      "name": "startElection",
      "outputs": [],
      "stateMutability": "nonpayable",
      "type": "function"
    },
    {
      "inputs": [
        {
          "internalType": "uint256",
          "name": "_candidateIndex",
          "type": "uint256"
        }
      ],
      "name": "vote",
      "outputs": [],
      "stateMutability": "nonpayable",
      "type": "function"
    },
    {
      "inputs": [
        {
          "internalType": "uint256",
          "name": "",
          "type": "uint256"
        },
        {
          "internalType": "address",
          "name": "",
          "type": "address"
        }
      ],
      "name": "voters",
      "outputs": [
        {
          "internalType": "bool",
          "name": "",
          "type": "bool"
        }
      ],
      "stateMutability": "view",
      "type": "function"
    }
  ],
  "bytecode": "0x6080604052348015600f57600080fd5b50336000806101000a81548173ffffffffffffffffffffffffffffffffffffffff021916908373ffffffffffffffffffffffffffffffffffffffff16021790555060018081905550611c52806100666000396000f3fe608060405234801561001057600080fd5b50600436106100cf5760003560e01c806359f784681161008c5780639e319063116100665780639e319063146101b6578063c94ca9e3146101e6578063d5346da114610204578063f851a44014610222576100cf565b806359f784681461018357806362d73eb81461018d5780638e7ea5b214610197576100cf565b80630121b93f146100d4578063051364d4146100f057806306a49fce1461010e5780633477ee2e1461012c5780633d946c531461015d578063462e91ec14610167575b600080fd5b6100ee60048036038101906100e99190610ed3565b610240565b005b6100f8610471565b6040516101059190610f0f565b60405180910390f35b610116610477565b60405161012391906110c8565b60405180910390f35b61014660048036038101906101419190610ed3565b610572565b604051610154929190611134565b60405180910390f35b61016561062e565b005b610181600480360381019061017c9190611299565b610767565b005b61018b6108fb565b005b610195610a45565b005b61019f610b90565b6040516101ad929190611134565b60405180910390f35b6101d060048036038101906101cb9190611340565b610d60565b6040516101dd919061139b565b60405180910390f35b6101ee610d8f565b6040516101fb919061139b565b60405180910390f35b61020c610da2565b604051610219919061139b565b60405180910390f35b61022a610db5565b60405161023791906113c5565b60405180910390f35b600060149054906101000a900460ff1661028f576040517f08c379a00000000000000000000000000000000000000000000000000000000081526004016102869061142c565b60405180910390fd5b600060159054906101000a900460ff16156102df576040517f08c379a00000000000000000000000000000000000000000000000000000000081526004016102d690611498565b60405180910390fd5b60036000600154815260200190815260200160002060003373ffffffffffffffffffffffffffffffffffffffff1673ffffffffffffffffffffffffffffffffffffffff16815260200190815260200160002060009054906101000a900460ff161561037f576040517f08c379a000000000000000000000000000000000000000000000000000000000815260040161037690611504565b60405180910390fd5b60028054905081106103c6576040517f08c379a00000000000000000000000000000000000000000000000000000000081526004016103bd90611570565b60405180910390fd5b600160036000600154815260200190815260200160002060003373ffffffffffffffffffffffffffffffffffffffff1673ffffffffffffffffffffffffffffffffffffffff16815260200190815260200160002060006101000a81548160ff02191690831515021790555060016002828154811061044757610446611590565b5b9060005260206000209060020201600101600082825461046791906115ee565b9250508190555050565b60015481565b60606002805480602002602001604051908101604052809291908181526020016000905b8282101561056957838290600052602060002090600202016040518060400160405290816000820180546104ce90611651565b80601f01602080910402602001604051908101604052809291908181526020018280546104fa90611651565b80156105475780601f1061051c57610100808354040283529160200191610547565b820191906000526020600020905b81548152906001019060200180831161052a57829003601f168201915b505050505081526020016001820154815250508152602001906001019061049b565b50505050905090565b6002818154811061058257600080fd5b90600052602060002090600202016000915090508060000180546105a590611651565b80601f01602080910402602001604051908101604052809291908181526020018280546105d190611651565b801561061e5780601f106105f35761010080835404028352916020019161061e565b820191906000526020600020905b81548152906001019060200180831161060157829003601f168201915b5050505050908060010154905082565b60008054906101000a900473ffffffffffffffffffffffffffffffffffffffff1673ffffffffffffffffffffffffffffffffffffffff163373ffffffffffffffffffffffffffffffffffffffff16146106bc576040517f08c379a00000000000000000000000000000000000000000000000000000000081526004016106b3906116f4565b60405180910390fd5b600060159054906101000a900460ff1661070b576040517f08c379a000000000000000000000000000000000000000000000000000000000815260040161070290611786565b60405180910390fd5b60008060146101000a81548160ff02191690831515021790555060008060156101000a81548160ff0219169083151502179055506002600061074d9190610dd9565b60016000815480929190610760906117a6565b9190505550565b60008054906101000a900473ffffffffffffffffffffffffffffffffffffffff1673ffffffffffffffffffffffffffffffffffffffff163373ffffffffffffffffffffffffffffffffffffffff16146107f5576040517f08c379a00000000000000000000000000000000000000000000000000000000081526004016107ec906116f4565b60405180910390fd5b600060149054906101000a900460ff1615610845576040517f08c379a000000000000000000000000000000000000000000000000000000000815260040161083c9061183a565b60405180910390fd5b600060159054906101000a900460ff1615610895576040517f08c379a000000000000000000000000000000000000000000000000000000000815260040161088c90611498565b60405180910390fd5b600260405180604001604052808381526020016000815250908060018154018082558091505060019003906000526020600020906002020160009091909190915060008201518160000190816108eb9190611a06565b5060208201518160010155505050565b60008054906101000a900473ffffffffffffffffffffffffffffffffffffffff1673ffffffffffffffffffffffffffffffffffffffff163373ffffffffffffffffffffffffffffffffffffffff1614610989576040517f08c379a0000000000000000000000000000000000000000000000000000000008152600401610980906116f4565b60405180910390fd5b600060149054906101000a900460ff166109d8576040517f08c379a00000000000000000000000000000000000000000000000000000000081526004016109cf9061142c565b60405180910390fd5b600060159054906101000a900460ff1615610a28576040517f08c379a0000000000000000000000000000000000000000000000000000000008152600401610a1f90611b24565b60405180910390fd5b6001600060156101000a81548160ff021916908315150217905550565b60008054906101000a900473ffffffffffffffffffffffffffffffffffffffff1673ffffffffffffffffffffffffffffffffffffffff163373ffffffffffffffffffffffffffffffffffffffff1614610ad3576040517f08c379a0000000000000000000000000000000000000000000000000000000008152600401610aca906116f4565b60405180910390fd5b600060149054906101000a900460ff1615610b23576040517f08c379a0000000000000000000000000000000000000000000000000000000008152600401610b1a9061183a565b60405180910390fd5b600060159054906101000a900460ff1615610b73576040517f08c379a0000000000000000000000000000000000000000000000000000000008152600401610b6a90611498565b60405180910390fd5b6001600060146101000a81548160ff021916908315150217905550565b606060008060159054906101000a900460ff16610be2576040517f08c379a0000000000000000000000000000000000000000000000000000000008152600401610bd990611b90565b60405180910390fd5b600060028054905011610c2a576040517f08c379a0000000000000000000000000000000000000000000000000000000008152600401610c2190611bfc565b60405180910390fd5b60008060005b600280549050811015610ca3578260028281548110610c5257610c51611590565b5b9060005260206000209060020201600101541115610c965760028181548110610c7e57610c7d611590565b5b90600052602060002090600202016001015492508091505b8080600101915050610c30565b5060028181548110610cb857610cb7611590565b5b906000526020600020906002020160000182818054610cd690611651565b80601f0160208091040260200160405190810160405280929190818152602001828054610d0290611651565b8015610d4f5780601f10610d2457610100808354040283529160200191610d4f565b820191906000526020600020905b815481529060010190602001808311610d3257829003601f168201915b505050505091509350935050509091565b60036020528160005260406000206020528060005260406000206000915091509054906101000a900460ff1681565b600060159054906101000a900460ff1681565b600060149054906101000a900460ff1681565b60008054906101000a900473ffffffffffffffffffffffffffffffffffffffff1681565b5080546000825560020290600052602060002090810190610dfa9190610dfd565b50565b5b80821115610e285760008082016000610e179190610e2c565b600182016000905550600201610dfe565b5090565b508054610e3890611651565b6000825580601f10610e4a5750610e69565b601f016020900490600052602060002090810190610e689190610e6c565b5b50565b5b80821115610e85576000816000905550600101610e6d565b5090565b6000604051905090565b600080fd5b600080fd5b6000819050919050565b610eb081610e9d565b8114610ebb57600080fd5b50565b600081359050610ecd81610ea7565b92915050565b600060208284031215610ee957610ee8610e93565b5b6000610ef784828501610ebe565b91505092915050565b610f0981610e9d565b82525050565b6000602082019050610f246000830184610f00565b92915050565b600081519050919050565b600082825260208201905092915050565b6000819050602082019050919050565b600081519050919050565b600082825260208201905092915050565b60005b83811015610f90578082015181840152602081019050610f75565b60008484015250505050565b6000601f19601f8301169050919050565b6000610fb882610f56565b610fc28185610f61565b9350610fd2818560208601610f72565b610fdb81610f9c565b840191505092915050565b610fef81610e9d565b82525050565b600060408301600083015184820360008601526110128282610fad565b91505060208301516110276020860182610fe6565b508091505092915050565b600061103e8383610ff5565b905092915050565b6000602082019050919050565b600061105e82610f2a565b6110688185610f35565b93508360208202850161107a85610f46565b8060005b858110156110b657848403895281516110978582611032565b94506110a283611046565b925060208a0199505060018101905061107e565b50829750879550505050505092915050565b600060208201905081810360008301526110e28184611053565b905092915050565b600082825260208201905092915050565b600061110682610f56565b61111081856110ea565b9350611120818560208601610f72565b61112981610f9c565b840191505092915050565b6000604082019050818103600083015261114e81856110fb565b905061115d6020830184610f00565b9392505050565b600080fd5b600080fd5b7f4e487b7100000000000000000000000000000000000000000000000000000000600052604160045260246000fd5b6111a682610f9c565b810181811067ffffffffffffffff821117156111c5576111c461116e565b5b80604052505050565b60006111d8610e89565b90506111e4828261119d565b919050565b600067ffffffffffffffff8211156112045761120361116e565b5b61120d82610f9c565b9050602081019050919050565b82818337600083830152505050565b600061123c611237846111e9565b6111ce565b90508281526020810184848401111561125857611257611169565b5b61126384828561121a565b509392505050565b600082601f8301126112805761127f611164565b5b8135611290848260208601611229565b91505092915050565b6000602082840312156112af576112ae610e93565b5b600082013567ffffffffffffffff8111156112cd576112cc610e98565b5b6112d98482850161126b565b91505092915050565b600073ffffffffffffffffffffffffffffffffffffffff82169050919050565b600061130d826112e2565b9050919050565b61131d81611302565b811461132857600080fd5b50565b60008135905061133a81611314565b92915050565b6000806040838503121561135757611356610e93565b5b600061136585828601610ebe565b92505060206113768582860161132b565b9150509250929050565b60008115159050919050565b61139581611380565b82525050565b60006020820190506113b0600083018461138c565b92915050565b6113bf81611302565b82525050565b60006020820190506113da60008301846113b6565b92915050565b7f456c656374696f6e20686173206e6f7420737461727465642079657400000000600082015250565b6000611416601c836110ea565b9150611421826113e0565b602082019050919050565b6000602082019050818103600083015261144581611409565b9050919050565b7f456c656374696f6e2068617320656e6465640000000000000000000000000000600082015250565b60006114826012836110ea565b915061148d8261144c565b602082019050919050565b600060208201905081810360008301526114b181611475565b9050919050565b7f596f75206861766520616c726561647920766f74656421000000000000000000600082015250565b60006114ee6017836110ea565b91506114f9826114b8565b602082019050919050565b6000602082019050818103600083015261151d816114e1565b9050919050565b7f496e76616c69642063616e64696461746520696e646578000000000000000000600082015250565b600061155a6017836110ea565b915061156582611524565b602082019050919050565b600060208201905081810360008301526115898161154d565b9050919050565b7f4e487b7100000000000000000000000000000000000000000000000000000000600052603260045260246000fd5b7f4e487b7100000000000000000000000000000000000000000000000000000000600052601160045260246000fd5b60006115f982610e9d565b915061160483610e9d565b925082820190508082111561161c5761161b6115bf565b5b92915050565b7f4e487b7100000000000000000000000000000000000000000000000000000000600052602260045260246000fd5b6000600282049050600182168061166957607f821691505b60208210810361167c5761167b611622565b5b50919050565b7f4f6e6c792061646d696e2063616e20706572666f726d2074686973206163746960008201527f6f6e000000000000000000000000000000000000000000000000000000000000602082015250565b60006116de6022836110ea565b91506116e982611682565b604082019050919050565b6000602082019050818103600083015261170d816116d1565b9050919050565b7f456c656374696f6e206973206e6f7420656e64656420796574212043616e206f60008201527f6e6c79207265737461727420616674657220697420636f6e636c756465732e00602082015250565b6000611770603f836110ea565b915061177b82611714565b604082019050919050565b6000602082019050818103600083015261179f81611763565b9050919050565b60006117b182610e9d565b91507fffffffffffffffffffffffffffffffffffffffffffffffffffffffffffffffff82036117e3576117e26115bf565b5b600182019050919050565b7f456c656374696f6e2068617320616c7265616479207374617274656400000000600082015250565b6000611824601c836110ea565b915061182f826117ee565b602082019050919050565b6000602082019050818103600083015261185381611817565b9050919050565b60008190508160005260206000209050919050565b60006020601f8301049050919050565b600082821b905092915050565b6000600883026118bc7fffffffffffffffffffffffffffffffffffffffffffffffffffffffffffffffff8261187f565b6118c6868361187f565b95508019841693508086168417925050509392505050565b6000819050919050565b60006119036118fe6118f984610e9d565b6118de565b610e9d565b9050919050565b6000819050919050565b61191d836118e8565b6119316119298261190a565b84845461188c565b825550505050565b600090565b611946611939565b611951818484611914565b505050565b5b818110156119755761196a60008261193e565b600181019050611957565b5050565b601f8211156119ba5761198b8161185a565b6119948461186f565b810160208510156119a3578190505b6119b76119af8561186f565b830182611956565b50505b505050565b600082821c905092915050565b60006119dd600019846008026119bf565b1980831691505092915050565b60006119f683836119cc565b9150826002028217905092915050565b611a0f82610f56565b67ffffffffffffffff811115611a2857611a2761116e565b5b611a328254611651565b611a3d828285611979565b600060209050601f831160018114611a705760008415611a5e578287015190505b611a6885826119ea565b865550611ad0565b601f198416611a7e8661185a565b60005b82811015611aa657848901518255600182019150602085019450602081019050611a81565b86831015611ac35784890151611abf601f8916826119cc565b8355505b6001600288020188555050505b505050505050565b7f456c656374696f6e2068617320616c726561647920656e646564000000000000600082015250565b6000611b0e601a836110ea565b9150611b1982611ad8565b602082019050919050565b60006020820190508181036000830152611b3d81611b01565b9050919050565b7f456c656374696f6e206973206e6f7420656e6465642079657400000000000000600082015250565b6000611b7a6019836110ea565b9150611b8582611b44565b602082019050919050565b60006020820190508181036000830152611ba981611b6d565b9050919050565b7f4e6f2063616e6469646174657320617661696c61626c65000000000000000000600082015250565b6000611be66017836110ea565b9150611bf182611bb0565b602082019050919050565b60006020820190508181036000830152611c1581611bd9565b905091905056fea26469706673582212201210ab3940a29fba8bf20d48c9beaa6b09f72bc2fa0b4df4876d00c1796c662664736f6c634300081c0033",
  "linkReferences": {},
  "deployedLinkReferences": {},
  "immutableReferences": {},
  "inputSourceName": "project/contracts/Voting.sol",
  "buildInfoId": "solc-0_8_28-b650d08e46b0e69a72e52f6b2ee084d1538e634b"
}